:020000040800F2
:1000000000280020011A00086D1900087319000863
:10001000791900087F190008851900080000000000
:100020000000000000000000000000008B19000824
:100030009719000800000000A3190008AF19000874
:10004000491A0008491A0008491A0008491A000804
:10005000491A0008491A0008491A0008491A0008F4
:10006000491A0008491A0008491A0008491A0008E4
:10007000491A0008491A0008491A0008491A0008D4
:10008000491A0008491A0008491A0008491A0008C4
:10009000491A0008491A0008491A0008491A0008B4
:1000A000491A0008491A0008491A0008491A0008A4
:1000B000BD190008491A000800000000491A00088C
:1000C000491A00080000000000000000491A00085A
:1000D00000000000491A0008491A0008000000004A
:1000E000491A0008491A0008491A000800000000CF
:1000F0000000000000000000000000000000000000
:0C01000000000000000000005FF808F1A3
:10010C0010B5054C237833B9044B13B10448AFF345
:10011C0000800123237010BD580000200000000057
:10012C009030000808B5034B1BB103490348AFF3EB
:10013C00008008BD000000005C000020903000082A
:10014C0080B500AF944B1B78012B40F02281934B70
:10015C001B78032B62D801A252F823F07901000816
:10016C0087010008BD010008F30100088B4B012238
:10017C001A70642001F030FA57E0012000F0CEF93B
:10018C00874B1B68012B4BD1864B1B68013B854A67
:10019C001360844B1B68002B06D1834B1B68814A70
:1001AC0013607E4B02221A70642001F015FA37E0BE
:1001BC00022000F0B3F97A4B1B68012B32D1794B3A
:1001CC001B68013B774A1360764B1B68002B06D1EA
:1001DC00764B1B68734A1360704B03221A706420B1
:1001EC0001F0FAF91EE0032000F098F96C4B1B6843
:1001FC00012B19D16B4B1B68013B6A4A1360694B8D
:10020C001B68002B06D16A4B1B68664A1360634B54
:10021C0001221A70642001F0DFF905E000BF04E050
:10022C0000BF02E000BF00E000BF624B1B78032B55
:10023C0062D801A252F823F05502000863020008AC
:10024C0099020008CF0200085A4B02221A7064204F
:10025C0001F0D6F957E0012000F0BCF9564B1B68B1
:10026C00012B4BD1554B1B68013B544A1360534B2C
:10027C001B68002B06D14C4B1B68504A13604D4B2E
:10028C0002221A70642001F0BBF937E0022000F062
:10029C00A1F9494B1B68012B32D1484B1B68013B20
:1002AC00464A1360454B1B68002B06D13F4B1B681D
:1002BC00424A13603F4B03221A70642001F0A0F9EC
:1002CC001EE0032000F086F93B4B1B68012B19D173
:1002DC003A4B1B68013B394A1360384B1B68002BA7
:1002EC0006D1334B1B68354A1360324B01221A700E
:1002FC00642001F085F905E000BF04E000BF02E0D6
:10030C0000BF00E000BF2E4B1B78022B20D0022B2D
:10031C0031DC002B02D0012B07D02CE0284B012222
:10032C001A70012001F080F92AE0264B1B68012B82
:10033C0023D11C4B1B68214A12681146184600F049
:10034C0083FD1F4B02221A70322001F06DF914E06C
:10035C001C4B1B68012B12D1124B1B68174A1268DD
:10036C001146184600F094FD154B01221A703220EC
:10037C0001F05AF903E000BF02E000BF00E000BF4B
:10038C00002000F021F80346012B02D1024B02227F
:10039C001A7000BF80BD00BFCB000020D100002030
:1003AC0080000020DC0000204400002048000020D9
:1003BC0040000020CF00002084000020D40000204A
:1003CC00D90000208800002080B483B000AF786092
:1003DC00094A7B6852F82330012B06D1064A7B6808
:1003EC00002142F82310012300E0002318460C37AB
:1003FC00BD4680BC704700BF7400002080B483B041
:10040C0000AF7860044A7B68012142F8231000BFDA
:10041C000C37BD4680BC70477400002080B582B09C
:10042C0000AF00237B6063E0354A7B6852F82320E1
:10043C0034497B6841F82320334A7B6852F82320E7
:10044C002F497B6841F82320304A7B6852F82330CF
:10045C009BB219462E4801F0DDFD034619462A4A87
:10046C007B6842F82310264A7B6852F823202649E1
:10047C007B6851F823309A4237D1214A7B6852F875
:10048C00232020497B6851F823309A422DD11D4AF4
:10049C007B6852F823201F497B6851F823309A421D
:1004AC0015D0184A7B6852F823201A497B6841F80A
:1004BC002320184A7B6852F82330002B15D1164B99
:1004CC004FF4FA721A607868FFF798FF0DE0124B40
:1004DC001B68013B104A13600F4B1B68002B04D1A7
:1004EC000C4A7B68012142F823107B6801337B6046
:1004FC007B68022B98DD00BF00BF0837BD4680BD6E
:10050C0018000020240000200C0000200000002017
:10051C0000080140300000203C00002080B582B073
:10052C0000AF0346FB71FB79032B4BD801A252F8A9
:10053C0023F000BF5105000871050008B105000843
:10054C009105000801221021214801F07AFD0122B9
:10055C0008211F4801F075FD012204211C4801F0FF
:10056C0070FD30E001221021194801F06AFD0122D2
:10057C000821174801F065FD00220421144801F000
:10058C0060FD20E001221021114801F05AFD0022EB
:10059C0008210F4801F055FD012204210C4801F0FF
:1005AC0050FD10E000221021094801F04AFD012203
:1005BC000821074801F045FD01220421044801F0FF
:1005CC0040FD00E000BF00BF0837BD4680BD00BF46
:1005DC000008014080B582B000AF0346FB71FB7987
:1005EC00032B4BD801A252F823F000BF09060008D8
:1005FC002906000869060008490600080122802126
:10060C00214801F01EFD012240211F4801F019FD77
:10061C00012220211C4801F014FD30E00122802130
:10062C00194801F00EFD01224021174801F009FD87
:10063C0000222021144801F004FD20E00122802139
:10064C00114801F0FEFC002240210F4801F0F9FC9A
:10065C00012220210C4801F0F4FC10E00022802142
:10066C00094801F0EEFC01224021074801F0E9FCA9
:10067C0001222021044801F0E4FC00E000BF00BF8F
:10068C000837BD4680BD00BF0008014080B582B070
:10069C0000AF0346FB71FB79032B0ED0032B1EDC42
:1006AC00012B13D0022B1AD110210F4801F0E1FCC1
:1006BC0080210D4801F0DDFC12E008210A4801F010
:1006CC00D8FC4021084801F0D4FC09E0042106487C
:1006DC0001F0CFFC2021044801F0CBFC00E000BF6E
:1006EC0000BF0837BD4680BD0008014080B582B010
:1006FC0000AF78607B68092B00F2808101A252F870
:10070C0023F000BF3907000881070008C90700085B
:10071C001108000859080008A1080008E908000899
:10072C003109000879090008C109000800220121DB
:10073C00B54801F086FC00220221B34801F081FC8F
:10074C0000220421B04801F07CFC00220821AE48B4
:10075C0001F077FC00221021AB4801F072FC002262
:10076C002021A94801F06DFC01224021A64801F08E
:10077C0068FC44E101220121A34801F062FC002243
:10078C000221A14801F05DFC002204219E4801F0E9
:10079C0058FC012208219C4801F053FC0122102135
:1007AC00994801F04EFC01222021974801F049FCA8
:1007BC0001224021944801F044FC20E10022012157
:1007CC00914801F03EFC002202218F4801F039FCD7
:1007DC00012204218C4801F034FC002208218A48B3
:1007EC0001F02FFC00221021874801F02AFC012285
:1007FC002021854801F025FC00224021824801F08F
:10080C0020FCFCE0002201217F4801F01AFC0022B0
:10081C0002217D4801F015FC002204217A4801F0E8
:10082C0010FC00220821784801F00BFC0122102159
:10083C00754801F006FC01222021734801F001FCEF
:10084C0000224021704801F0FCFBD8E0012201217C
:10085C006D4801F0F6FB002202216B4801F0F1FB20
:10086C0000220421684801F0ECFB012208216648B3
:10087C0001F0E7FB01221021634801F0E2FB0022AA
:10088C002021614801F0DDFB002240215E4801F08F
:10089C00D8FBB4E0002201215B4801F0D2FB01221D
:1008AC000221594801F0CDFB00220421564801F0E9
:1008BC00C8FB00220821544801F0C3FB012210217F
:1008CC00514801F0BEFB002220214F4801F0B9FB3A
:1008DC00002240214C4801F0B4FB90E000220121A1
:1008EC00494801F0AEFB01220221474801F0A9FB67
:1008FC0000220421444801F0A4FB002208214248B4
:10090C0001F09FFB002210213F4801F09AFB0022CE
:10091C0020213D4801F095FB002240213A4801F08E
:10092C0090FB6CE000220121374801F08AFB002289
:10093C000221354801F085FB00220421324801F0E8
:10094C0080FB01220821304801F07BFB01221021A1
:10095C002D4801F076FB012220212B4801F071FB80
:10096C0001224021284801F06CFB48E000220121C3
:10097C00254801F066FB00220221234801F061FBAF
:10098C0000220421204801F05CFB002208211E48B3
:10099C0001F057FB002210211B4801F052FB0022F2
:1009AC002021194801F04DFB00224021164801F08E
:1009BC0048FB24E000220121134801F042FB0022F5
:1009CC000221114801F03DFB002204210E4801F0E8
:1009DC0038FB002208210C4801F033FB01221021C6
:1009EC00094801F02EFB00222021074801F029FBC9
:1009FC0000224021044801F024FB00E000BF00BFAE
:100A0C000837BD4680BD00BF000C014080B582B0E8
:100A1C0000AF78607B68092B00F2C88101A252F804
:100A2C0023F000BF590A0008AF0A0008050B0008A4
:100A3C005B0B0008B10B0008070C00085D0C0008EC
:100A4C00B30C0008090D00085F0D000800224FF4DC
:100A5C008071D54801F0F5FA00224FF40071D248AC
:100A6C0001F0EFFA00224FF48061CF4801F0E9FA6F
:100A7C0000224FF40061CC4801F0E3FA00224FF45D
:100A8C008051C94801F0DDFA00224FF40051C648EC
:100A9C0001F0D7FA01224FF48041C34801F0D1FA9A
:100AAC0085E101224FF48071BF4801F0CAFA00229F
:100ABC004FF40071BC4801F0C4FA00224FF480617D
:100ACC00B94801F0BEFA01224FF40061B64801F0BA
:100ADC00B8FA01224FF48051B34801F0B2FA012266
:100AEC004FF40051B04801F0ACFA01224FF48041B0
:100AFC00AD4801F0A6FA5AE100224FF48071AA48E1
:100B0C0001F09FFA00224FF40071A74801F099FA06
:100B1C0001224FF48061A44801F093FA00224FF4B3
:100B2C000061A14801F08DFA00224FF480519E48DB
:100B3C0001F087FA01224FF400519B4801F081FA31
:100B4C0000224FF48041984801F07BFA2FE10022FB
:100B5C004FF48071944801F074FA00224FF4007144
:100B6C00914801F06EFA00224FF480618E4801F03A
:100B7C0068FA00224FF400618B4801F062FA0122FE
:100B8C004FF48051884801F05CFA01224FF4005177
:100B9C00854801F056FA00224FF48041824801F05A
:100BAC0050FA04E101224FF480717F4801F049FAB8
:100BBC0000224FF400717C4801F043FA00224FF4FC
:100BCC008061794801F03DFA01224FF400617648CA
:100BDC0001F037FA01224FF48051734801F031FAD9
:100BEC0000224FF40051704801F02BFA00224FF410
:100BFC0080416D4801F025FAD9E000224FF4807154
:100C0C00694801F01EFA01224FF40071664801F0A8
:100C1C0018FA00224FF48061634801F012FA0022A6
:100C2C004FF40061604801F00CFA01224FF480513E
:100C3C005D4801F006FA00224FF400515A4801F0C9
:100C4C0000FA00224FF48041574801F0FAF9AEE067
:100C5C0000224FF48071544801F0F3F901224FF453
:100C6C000071514801F0EDF900224FF480614E48BB
:100C7C0001F0E7F900224FF400614B4801F0E1F973
:100C8C0000224FF48051484801F0DBF900224FF468
:100C9C000051454801F0D5F900224FF480414248FB
:100CAC0001F0CFF983E000224FF480713E4801F04F
:100CBC00C8F900224FF400713B4801F0C2F9002240
:100CCC004FF48061384801F0BCF901224FF4006107
:100CDC00354801F0B6F901224FF48051324801F049
:100CEC00B0F901224FF400512F4801F0AAF901226A
:100CFC004FF480412C4801F0A4F958E000224FF445
:100D0C008071294801F09DF900224FF400712648AA
:100D1C0001F097F900224FF48061234801F091F91A
:100D2C0000224FF40061204801F08BF900224FF4AF
:100D3C0080511D4801F085F900224FF400511A48EA
:100D4C0001F07FF900224FF48041174801F079F946
:100D5C002DE000224FF48071134801F072F900224B
:100D6C004FF40071104801F06CF900224FF48061CF
:100D7C000D4801F066F900224FF400610A4801F0B9
:100D8C0060F901224FF48051074801F05AF9002212
:100D9C004FF40051044801F054F900224FF4804103
:100DAC00014801F04EF902E0000C014000BF00BF09
:100DBC000837BD4680BD00BF80B500AF00224FF4A0
:100DCC008051054801F03DF901224FF400510248D1
:100DDC0001F037F900BF80BD0008014080B500AFBD
:100DEC0001224FF48051054801F02BF900224FF4F9
:100DFC000051024801F025F900BF80BD00080140F8
:100E0C0080B500AF00224FF48041054801F019F97C
:100E1C0001224FF40041024801F013F900BF80BDDC
:100E2C000008014080B500AF01224FF48041054815
:100E3C0001F007F900224FF40041024801F001F9DA
:100E4C0000BF80BD0008014080B582B000AF786063
:100E5C003960FFF7B1FF7B680C4A82FB03129210DA
:100E6C00DB17D31A1846FFF741FCFFF7C9FF3B68A5
:100E7C00064A82FB03129210DB17D31A1846FFF7AF
:100E8C00C5FD00BF0837BD4680BD00BF67666666FE
:100E9C0080B582B000AF78603960FFF79FFF7A6849
:100EAC00114B83FB02139910D317C91A0B469B00E5
:100EBC000B445B00D11A0846FFF718FCFFF7B2FF92
:100ECC003A68094B83FB02139910D317C91A0B46C6
:100EDC009B000B445B00D11A0846FFF797FD00BF3F
:100EEC000837BD4680BD00BF6766666680B400AF3C
:100EFC00194B01221A70194B00221A70184B002240
:100F0C001A70184B00221A70174B00221A70174BCC
:100F1C0000221A70164B00221A70164B00221A70FF
:100F2C00154B00221A70154B00221A70144B00221C
:100F3C001A70144B00221A70134B00221A70134BA8
:100F4C001B68134A1360134B1B68134A136000BFD2
:100F5C00BD4680BC704700BFCB000020D0000020F5
:100F6C00CC000020D8000020CD000020C9000020BB
:100F7C00D2000020CA000020CE000020C8000020B3
:100F8C00D1000020CF000020D9000020400000201C
:100F9C00DC00002044000020D400002080B500AF0D
:100FAC0000F04EFD00F014F800F09AF800F04CF848
:100FBC00064801F0A3FCFFF799FF0020FFF7AEFAFB
:100FCC00FFF7BEF800F0CAFAFAE700BFE000002015
:100FDC0080B590B000AF07F1180328220021184605
:100FEC0002F048F83B1D00221A605A609A60DA60E1
:100FFC001A610223BB610123BB621023FB62002335
:10100C007B6307F11803184601F04CF80346002BDC
:10101C0001D000F0C9F80F237B600023BB600023D4
:10102C00FB6000233B6100237B613B1D00211846C4
:10103C0001F0B8FA0346002B01D000F0B5F800BF60
:10104C004037BD4680BD000080B586B000AF07F1CB
:10105C00080300221A605A609A60DA603B4600224C
:10106C001A605A601D4B4FF080421A601B4B41F6C0
:10107C003F725A60194B00229A60184B0922DA60B1
:10108C00164B00221A61154B00229A61134801F08D
:10109C00E5FB0346002B01D000F086F84FF480539B
:1010AC00BB6007F1080319460C4801F07BFD0346B1
:1010BC00002B01D000F078F800233B6000237B600C
:1010CC003B461946054801F047FF0346002B01D06B
:1010DC0000F06AF800BF1837BD4680BDE000002064
:1010EC0080B586B000AF07F1080300221A605A6081
:1010FC009A60DA60294B9B69284A43F00403936198
:10110C00264B9B6903F004037B607B68234B9B6934
:10111C00224A43F008039361204B9B6903F00803B8
:10112C003B603B6800224FF2FC011D4800F089FF38
:10113C00002247F67F711B4800F083FF4FF2FC033F
:10114C00BB600123FB6000233B6102237B6107F141
:10115C0008031946124800F0E3FD47F67F73BB60A5
:10116C000123FB6000233B6102237B6107F1080331
:10117C0019460C4800F0D4FD4FF4E063BB6000232B
:10118C00FB6001233B6107F108031946044800F09A
:10119C00C7FD00BF1837BD4680BD00BF0010024020
:1011AC0000080140000C014080B400AF72B600BFD3
:1011BC00FEE7000080B500AF454B1B78002B02D03A
:1011CC00012B07D011E0424B01221A70192000F0BC
:1011DC003FFA0AE03F4B1B68012B05D10120FFF7BA
:1011EC0055FA192000F034FA00BF3B4B1B78002B4A
:1011FC0002D0012B0FD02FE00120FFF7E5F80346BA
:10120C00012B26D1344B01221A70344B1B6801334D
:10121C00324A13601DE00120FFF7D6F80346012B7C
:10122C000BD12E4B1B6801332C4A13602B4B1B68C4
:10123C00622B02DD294B01221A600220FFF7C4F851
:10124C000346012B07D1264B01221A70FFF74EFEE5
:10125C0001E000BF00E000BF224B1B78022B1ED028
:10126C00022B2DDC002B02D0012B07D028E01D4BCC
:10127C0001221A70192000F0FFF926E01A4B1B68A6
:10128C00012B1FD1154B1B6819460120FFF7DCFD04
:10129C00144B02221A70192000F0EEF912E0124BD6
:1012AC001B68012B10D10D4B1B6819460120FFF751
:1012BC00EFFD192000F0E0F90A4B01221A7003E04F
:1012CC0000BF02E000BF00E000BF00BF80BD00BF58
:1012DC00D00000208C000020D8000020400000200E
:1012EC00CB000020CC0000209000002080B500AF87
:1012FC00454B1B78002B02D0012B07D011E0424B41
:10130C0001221A70192000F0CBF90AE03F4B1B6840
:10131C00012B05D10320FFF7B9F9192000F0C0F912
:10132C0000BF3B4B1B78002B02D0012B0FD02FE0C2
:10133C000120FFF749F80346012B26D1344B01223B
:10134C001A70344B1B680133324A13601DE00120C4
:10135C00FFF73AF80346012B0BD12E4B1B680133D8
:10136C002C4A13602B4B1B68622B02DD294B01228C
:10137C001A600220FFF728F80346012B07D1264BF1
:10138C0001221A70FFF7B2FD01E000BF00E000BFC0
:10139C00224B1B78022B1ED0022B2DDC002B02D0F3
:1013AC00012B07D028E01D4B01221A70192000F0E8
:1013BC008BF926E01A4B1B68012B1FD1154B1B68B0
:1013CC0019460120FFF740FD144B02221A70192018
:1013DC0000F07AF912E0124B1B68012B10D10D4B67
:1013EC001B6819460120FFF753FD192000F06CF91A
:1013FC000A4B01221A7003E000BF02E000BF00E0BC
:10140C0000BF00BF80BD00BFCD00002094000020B5
:10141C00D200002048000020CB000020C900002092
:10142C009800002080B500AF454B1B78002B02D0F4
:10143C00012B07D011E0424B01221A70192000F049
:10144C0057F90AE03F4B1B68012B05D10220FFF72F
:10145C001DF9192000F04CF900BF3B4B1B78002BF9
:10146C0002D0012B0FD02FE00120FEF7ADFF034679
:10147C00012B26D1344B01221A70344B1B680133DB
:10148C00324A13601DE00120FEF79EFF0346012B3C
:10149C000BD12E4B1B6801332C4A13602B4B1B6852
:1014AC00622B02DD294B01221A600220FEF78CFF11
:1014BC000346012B07D1264B01221A70FFF716FDAC
:1014CC0001E000BF00E000BF224B1B78022B1ED0B6
:1014DC00022B2DDC002B02D0012B07D028E01D4B5A
:1014EC0001221A70192000F017F926E01A4B1B681C
:1014FC00012B1FD1154B1B6819460120FFF7A4FCCB
:10150C00144B02221A70192000F006F912E0124B4B
:10151C001B68012B10D10D4B1B6819460120FFF7DE
:10152C00B7FC192000F0F8F80A4B01221A7003E0FE
:10153C0000BF02E000BF00E000BF00BF80BD00BFE5
:10154C00CA0000209C000020C8000020440000209D
:10155C00CB000020CE000020A000002080B500AF02
:10156C001C4B1B78042B1ED0042B2ADC022B02D024
:10157C00032B0CD025E0FFF71DFE0020FEF724FF07
:10158C000346012B1FD1134B03221A701BE0FFF7EC
:10159C00ADFE0020FEF718FF0346012B15D10D4BB5
:1015AC0004221A7011E0FFF73DFF0020FEF70CFF3C
:1015BC000346012B0BD1074B01221A70FFF796FC47
:1015CC0005E000BF04E000BF02E000BF00E000BF88
:1015DC0000BF80BDCB00002080B483B000AF78602A
:1015EC00054A7B681360054B00221A6000BF0C375C
:1015FC00BD4680BC704700BFA400002080000020C6
:10160C0080B483B000AF7860054A7B681360054BEB
:10161C0000221A6000BF0C37BD4680BC704700BF6B
:10162C00A80000208400002080B483B000AF786054
:10163C00054A7B681360054B00221A6000BF0C370B
:10164C00BD4680BC704700BFAC0000208800002065
:10165C0080B483B000AF7860054A7B681360054B9B
:10166C0000221A6000BF0C37BD4680BC704700BF1B
:10167C00B00000208C00002080B483B000AF7860F4
:10168C00054A7B681360054B00221A6000BF0C37BB
:10169C00BD4680BC704700BFB40000209000002005
:1016AC0080B483B000AF7860054A7B681360054B4B
:1016BC0000221A6000BF0C37BD4680BC704700BFCB
:1016CC00B80000209400002080B483B000AF786094
:1016DC00054A7B681360054B00221A6000BF0C376B
:1016EC00BD4680BC704700BFBC00002098000020A5
:1016FC0080B483B000AF7860054A7B681360054BFB
:10170C0000221A6000BF0C37BD4680BC704700BF7A
:10171C00C00000209C00002080B483B000AF786033
:10172C00054A7B681360054B00221A6000BF0C371A
:10173C00BD4680BC704700BFC4000020A000002044
:10174C0080B400AF494B1B68002B0BDD474B1B686B
:10175C00013B464A1360454B1B68002B02D1444B9E
:10176C0001221A60434B1B68002B0BDD414B1B689D
:10177C00013B404A13603F4B1B68002B02D13E4B90
:10178C0001221A603D4B1B68002B0BDD3B4B1B6889
:10179C00013B3A4A1360394B1B68002B02D1384B82
:1017AC0001221A60374B1B68002B0BDD354B1B6875
:1017BC00013B344A1360334B1B68002B02D1324B74
:1017CC0001221A60314B1B68002B0BDD2F4B1B6861
:1017DC00013B2E4A13602D4B1B68002B02D12C4B66
:1017EC0001221A602B4B1B68002B0BDD294B1B684D
:1017FC00013B284A1360274B1B68002B02D1264B58
:10180C0001221A60254B1B68002B0BDD234B1B6838
:10181C00013B224A1360214B1B68002B02D1204B49
:10182C0001221A601F4B1B68002B0BDD1D4B1B6824
:10183C00013B1C4A13601B4B1B68002B02D11A4B3B
:10184C0001221A60194B1B68002B0BDD174B1B6810
:10185C00013B164A1360154B1B68002B02D1144B2D
:10186C0001221A6000BFBD4680BC7047A400002056
:10187C0080000020A800002084000020AC00002084
:10188C0088000020B00000208C000020B400002054
:10189C0090000020B800002094000020BC00002024
:1018AC0098000020C00000209C000020C4000020F4
:1018BC00A000002080B485B000AF154B9B69144A82
:1018CC0043F001039361124B9B6903F00103BB606E
:1018DC00BB680F4BDB690E4A43F08053D3610C4B52
:1018EC00DB6903F080537B607B680A4B5B68FB60B1
:1018FC00FB6823F0E063FB60FB6843F08063FB60F4
:10190C00044AFB68536000BF1437BD4680BC704767
:10191C00001002400000014080B584B000AF786038
:10192C007B681B68B3F1804F13D10C4BDB690B4AFE
:10193C0043F00103D361094BDB6903F00103FB6046
:10194C00FB68002200211C2000F0B3F91C2000F0E1
:10195C00CCF900BF1037BD4680BD00BF001002405F
:10196C0080B400AFFEE780B400AFFEE780B400AFF8
:10197C00FEE780B400AFFEE780B400AFFEE780B4B2
:10198C0000AF00BFBD4680BC704780B400AF00BF45
:10199C00BD4680BC704780B400AF00BFBD4680BC64
:1019AC00704780B500AF00F091F800BF80BD00001B
:1019BC0080B500AF024800F0EDFF00BF80BD00BF56
:1019CC00E000002080B400AF00BFBD4680BC704773
:1019DC0080B582B000AF78607B681B68B3F1804F34
:1019EC0003D1FEF71BFDFFF7ABFE00BF0837BD466A
:1019FC0080BD0000FFF7E6FF0B480C490C4A0023A2
:101A0C0002E0D458C4500433C4188C42F9D3094AA8
:101A1C00094C002301E013600432A242FBD301F015
:101A2C0005FBFFF7BBFA70470000002058000020B0
:101A3C00D4300008580000202C010020FEE70000E4
:101A4C0080B500AF084B1B68074A43F010031360C6
:101A5C00032000F023F90F2000F008F8FFF72AFF0D
:101A6C000023184680BD00BF0020024080B582B024
:101A7C0000AF7860124B1A68124B1B7819464FF462
:101A8C007A73B3FBF1F3B2FBF3F3184600F03BF9B6
:101A9C000346002B01D001230EE07B680F2B0AD8E4
:101AAC00002279684FF0FF3000F003F9064A7B689A
:101ABC001360002300E0012318460837BD4680BDA3
:101ACC004C000020540000205000002080B400AFD7
:101ADC00054B1B781A46054B1B681344034A1360CD
:101AEC0000BFBD4680BC7047540000202801002078
:101AFC0080B400AF024B1B681846BD4680BC7047D3
:101B0C002801002080B485B000AF78607B6803F0BA
:101B1C000703FB600C4BDB68BB60BA684FF6FF0336
:101B2C001340BB60FB681A02BB68134343F0BF63EE
:101B3C0043F40033BB60044ABB68D36000BF143766
:101B4C00BD4680BC704700BF00ED00E080B400AF24
:101B5C00044BDB681B0A03F007031846BD4680BC28
:101B6C00704700BF00ED00E080B483B000AF0346C7
:101B7C00FB7197F90730002B0BDBFB7903F01F028D
:101B8C00064997F907305B09012000FA02F241F887
:101B9C00232000BF0C37BD4680BC704700E100E03D
:101BAC0080B483B000AF03463960FB7197F90730FE
:101BBC00002B0ADB3B68DAB20C4997F907301201AB
:101BCC00D2B20B4483F800230AE03B68DAB208492E
:101BDC00FB7903F00F03043B1201D2B20B441A76CB
:101BEC0000BF0C37BD4680BC704700BF00E100E071
:101BFC0000ED00E080B489B000AFF860B9607A60A5
:101C0C00FB6803F00703FB61FB69C3F10703042BBB
:101C1C0028BF0423BB61FB690433062B02D9FB6983
:101C2C00033B00E000237B614FF0FF32BB6902FAFB
:101C3C0003F3DA43BB681A407B699A404FF0FF31DB
:101C4C007B6901FA03F3D9437B680B4013431846B5
:101C5C002437BD4680BC704780B582B000AF786039
:101C6C007B68013BB3F1807F01D301230FE00A4A6B
:101C7C007B68013B53600F214FF0FF30FFF790FF63
:101C8C00054B00229A60044B07221A600023184669
:101C9C000837BD4680BD00BF10E000E080B582B0C3
:101CAC0000AF78607868FFF72DFF00BF0837BD469E
:101CBC0080BD80B586B000AF0346B9607A60FB7317
:101CCC0000237B61FFF742FF78617A68B968786915
:101CDC00FFF790FF024697F90F3011461846FFF7B1
:101CEC005FFF00BF1837BD4680BD80B582B000AF26
:101CFC000346FB7197F907301846FFF735FF00BF15
:101D0C000837BD4680BD80B582B000AF786078687A
:101D1C00FFF7A2FF034618460837BD4680BD0000FA
:101D2C0080B48BB000AF7860396000237B620023F5
:101D3C003B6248E101227B6A02FA03F3FB613B68D8
:101D4C001B68FA691340BB61BA69FB699A4240F09F
:101D5C0037813B685B68A34A93425ED0A14A9342A9
:101D6C0075D8A14A934258D09F4A93426FD89F4A44
:101D7C00934252D09D4A934269D89D4A93424CD08B
:101D8C009B4A934263D89B4A934246D0994A9342CA
:101D9C005DD8122B2AD8122B59D801A252F823F055
:101DAC00271E0008011E0008131E0008551E0008FF
:101DBC005B1E00085B1E00085B1E00085B1E000813
:101DCC005B1E00085B1E00085B1E00085B1E000803
:101DDC005B1E00085B1E00085B1E00085B1E0008F3
:101DEC005B1E0008091E00081D1E0008824A934253
:101DFC0013D02CE03B68DB683B6229E03B68DB6876
:101E0C0004333B6224E03B68DB6808333B621FE031
:101E1C003B68DB680C333B621AE03B689B68002B29
:101E2C0002D104233B6213E03B689B68012B05D174
:101E3C0008233B627B68FA691A6109E008233B625C
:101E4C007B68FA695A6103E000233B6200E000BF43
:101E5C00BB69FF2B01D87B6801E07B6804337B6195
:101E6C00BB69FF2B02D87B6A9B0002E07B6A083BB4
:101E7C009B003B617B691A680F213B6901FA03F3F4
:101E8C00DB431A40396A3B6901FA03F31A437B6955
:101E9C001A603B685B6803F08053002B00F0908065
:101EAC00564B9B69554A43F001039361534B9B6915
:101EBC0003F00103BB60BB68514A7B6A9B08023389
:101ECC0052F82330FB607B6A03F003039B000F2264
:101EDC0002FA03F3DB43FA681340FB607B68494A60
:101EEC0093420DD07B68484A934207D07B68474A9F
:101EFC00934201D1022304E0032302E0012300E01A
:101F0C0000237A6A02F0030292009340FA681343AA
:101F1C00FB603B497B6A9B080233FA6841F823203B
:101F2C003B685B6803F48013002B06D0384B9A682F
:101F3C003749BB6913438B6006E0354B9A68BB6924
:101F4C00DB43334913408B603B685B6803F400133D
:101F5C00002B06D02E4BDA682D49BB691343CB609E
:101F6C0006E02B4BDA68BB69DB4329491340CB6095
:101F7C003B685B6803F40033002B06D0244B5A6893
:101F8C002349BB6913434B6006E0214B5A68BB697C
:101F9C00DB431F4913404B603B685B6803F48033A1
:101FAC00002B06D01A4B1A681949BB6913430B60F6
:101FBC0006E0174B1A68BB69DB43154913400B60ED
:101FCC007B6A01337B623B681A687B6A22FA03F3F3
:101FDC00002B7FF4AFAE00BF00BF2C37BD4680BCDA
:101FEC00704700BF000032100000311000002210BA
:101FFC00000021100000121000001110001002400F
:10200C000000014000080140000C0140001001409C
:10201C000004014080B485B000AF78600B467B8033
:10202C007B689A687B881340002B02D00123FB73DA
:10203C0001E00023FB73FB7B18461437BD4680BCC4
:10204C00704780B483B000AF78600B467B8013463A
:10205C007B707B78002B03D07A887B681A6103E055
:10206C007B881A047B681A6100BF0C37BD4680BCA4
:10207C00704780B485B000AF78600B467B807B687E
:10208C00DB68FB607A88FB6813401A04FB68D94351
:10209C007B880B401A437B681A6100BF1437BD461E
:1020AC0080BC704780B586B000AF78607B68002B31
:1020BC0001D101236CE27B681B6803F00103002B48
:1020CC0000F08780924B5B6803F00C03042B0CD060
:1020DC008F4B5B6803F00C03082B12D18C4B5B68A5
:1020EC0003F48033B3F5803F0BD1894B1B6803F4A9
:1020FC000033002B6CD07B685B68002B68D101230C
:10210C0046E27B685B68B3F5803F06D1804B1B6869
:10211C007F4A43F4803313602EE07B685B68002BAE
:10212C000CD17B4B1B687A4A23F480331360784BB9
:10213C001B68774A23F4802313601DE07B685B687F
:10214C00B3F5A02F0CD1724B1B68714A43F480235A
:10215C0013606F4B1B686E4A43F4803313600BE0C3
:10216C006B4B1B686A4A23F480331360684B1B6803
:10217C00674A23F4802313607B685B68002B13D0C1
:10218C00FFF7B6FC386108E0FFF7B2FC02463B698A
:10219C00D31A642B01D90323FAE15D4B1B6803F4BA
:1021AC000033002BF0D014E0FFF7A2FC386108E0FC
:1021BC00FFF79EFC02463B69D31A642B01D903231B
:1021CC00E6E1534B1B6803F40033002BF0D100E025
:1021DC0000BF7B681B6803F00203002B63D04C4BE1
:1021EC005B6803F00C03002B0BD0494B5B6803F0CE
:1021FC000C03082B1CD1464B5B6803F48033002B7B
:10220C0016D1434B1B6803F00203002B05D07B68EF
:10221C001B69012B01D00123BAE13D4B1B6823F054
:10222C00F8027B685B69DB00394913430B603AE0C9
:10223C007B681B69002B20D0364B01221A60FFF7FC
:10224C0057FC386108E0FFF753FC02463B69D31A90
:10225C00022B01D903239BE12D4B1B6803F00203D6
:10226C00002BF0D02A4B1B6823F0F8027B685B69CB
:10227C00DB00274913430B6015E0264B00221A6044
:10228C00FFF736FC386108E0FFF732FC02463B6989
:10229C00D31A022B01D903237AE11D4B1B6803F0DF
:1022AC000203002BF0D17B681B6803F00803002BA2
:1022BC003AD07B689B69002B19D0174B01221A600E
:1022CC00FFF716FC386108E0FFF712FC02463B6989
:1022DC00D31A022B01D903235AE10D4B5B6A03F08D
:1022EC000203002BF0D0012000F09AFA1CE00A4BFC
:1022FC0000221A60FFF7FCFB38610FE0FFF7F8FBD8
:10230C0002463B69D31A022B08D9032340E100BFD4
:10231C000010024000004242800442429E4B5B6A25
:10232C0003F00203002BE9D17B681B6803F0040364
:10233C00002B00F0A6800023FB75974BDB6903F0A4
:10234C008053002B0DD1944BDB69934A43F080539F
:10235C00D361914BDB6903F08053BB60BB680123F5
:10236C00FB758E4B1B6803F48073002B18D18B4BC1
:10237C001B688A4A43F480731360FFF7B9FB38611A
:10238C0008E0FFF7B5FB02463B69D31A642B01D971
:10239C000323FDE0814B1B6803F48073002BF0D00A
:1023AC007B68DB68012B06D17B4B1B6A7A4A43F0B6
:1023BC00010313622DE07B68DB68002B0CD1764B9C
:1023CC001B6A754A23F001031362734B1B6A724A32
:1023DC0023F0040313621CE07B68DB68052B0CD133
:1023EC006D4B1B6A6C4A43F0040313626A4B1B6A05
:1023FC00694A43F0010313620BE0674B1B6A664AA0
:10240C0023F001031362644B1B6A634A23F0040339
:10241C0013627B68DB68002B15D0FFF769FB386112
:10242C000AE0FFF765FB02463B69D31A41F288329A
:10243C00934201D90323ABE0574B1B6A03F0020311
:10244C00002BEED014E0FFF753FB38610AE0FFF7E6
:10245C004FFB02463B69D31A41F28832934201D9B1
:10246C00032395E04C4B1B6A03F00203002BEED1C7
:10247C00FB7D012B05D1484BDB69474A23F0805388
:10248C00D3617B68DB69002B00F08180424B5B6879
:10249C0003F00C03082B61D07B68DB69022B46D15F
:1024AC003F4B00221A60FFF723FB386108E0FFF76F
:1024BC001FFB02463B69D31A022B01D9032367E0A9
:1024CC00354B1B6803F00073002BF0D17B681B6A43
:1024DC00B3F5803F08D1304B5B6823F400327B6846
:1024EC009B682D4913434B602B4B5B6823F4741290
:1024FC007B68196A7B685B6A0B43274913434B6003
:10250C00274B01221A60FFF7F3FA386108E0FFF756
:10251C00EFFA02463B69D31A022B01D9032337E0A9
:10252C001D4B1B6803F00073002BF0D02FE01C4BED
:10253C0000221A60FFF7DCFA386108E0FFF7D8FADE
:10254C0002463B69D31A022B01D9032320E0124B1C
:10255C001B6803F00073002BF0D118E07B68DB697B
:10256C00012B01D1012313E00B4B5B68FB60FB6873
:10257C0003F480327B681B6A9A4206D1FB6803F431
:10258C0070127B685B6A9A4201D0012300E0002341
:10259C0018461837BD4680BD001002400070004040
:1025AC006000424280B584B000AF786039607B68CF
:1025BC00002B01D10123D0E06A4B1B6803F0070309
:1025CC003A689A4210D9674B1B6823F00702654999
:1025DC003B6813430B60634B1B6803F007033A68BB
:1025EC009A4201D00123B8E07B681B6803F0020318
:1025FC00002B20D07B681B6803F00403002B05D054
:10260C00594B5B68584A43F4E06353607B681B6822
:10261C0003F00803002B05D0534B5B68524A43F47C
:10262C0060535360504B5B6823F0F0027B689B68EF
:10263C004D4913434B607B681B6803F00103002B6F
:10264C0040D07B685B68012B07D1474B1B6803F4B8
:10265C000033002B15D101237FE07B685B68022BD4
:10266C0007D1414B1B6803F00073002B09D10123E8
:10267C0073E03D4B1B6803F00203002B01D10123D7
:10268C006BE0394B5B6823F003027B685B6836496F
:10269C0013434B60FFF72CFAF8600AE0FFF728FAB7
:1026AC000246FB68D31A41F28832934201D90323C4
:1026BC0053E02D4B5B6803F00C027B685B689B005E
:1026CC009A42EBD1274B1B6803F007033A689A42F6
:1026DC0010D2244B1B6823F0070222493B6813439A
:1026EC000B60204B1B6803F007033A689A4201D039
:1026FC00012332E07B681B6803F00403002B08D035
:10270C00194B5B6823F4E0627B68DB681649134362
:10271C004B607B681B6803F00803002B09D0124B3D
:10272C005B6823F460527B681B69DB000E49134322
:10273C004B6000F021F802460B4B5B681B0903F061
:10274C000F030A49CB5C22FA03F3094A1360094BC5
:10275C001B681846FFF78AF9002318461037BD4648
:10276C0080BD00BF0020024000100240A8300008CD
:10277C004C0000205000002080B487B000AF002334
:10278C00FB600023BB6000237B6100237B60002384
:10279C003B611E4B5B68FB60FB6803F00C03042B76
:1027AC0002D0082B03D027E0194B3B6127E0FB68D4
:1027BC009B0C03F00F03174AD35C7B60FB6803F49C
:1027CC008033002B10D0114B5B685B0C03F00103C2
:1027DC00114AD35CBB607B680D4A02FB03F2BB68F9
:1027EC00B2FBF3F37B6104E07B680C4A02FB03F35E
:1027FC007B617B693B6102E0054B3B6100BF3B6940
:10280C0018461C37BD4680BC704700BF0010024004
:10281C0000127A00B8300008C830000800093D00EA
:10282C0080B485B000AF78600A4B1B680A4AA2FBE3
:10283C0003235B0A7A6802FB03F3FB6000BFFB68AF
:10284C005A1EFA60002BF9D100BF00BF1437BD46E9
:10285C0080BC70474C000020D34D621080B582B014
:10286C0000AF78607B68002B01D1012341E07B68CD
:10287C0093F83D30DBB2002B06D17B68002283F845
:10288C003C207868FFF748F87B68022283F83D20EB
:10289C007B681A687B6804331946104600F06EFAA0
:1028AC007B68012283F846207B68012283F83E2056
:1028BC007B68012283F83F207B68012283F840204B
:1028CC007B68012283F841207B68012283F8422037
:1028DC007B68012283F843207B68012283F8442023
:1028EC007B68012283F845207B68012283F83D2018
:1028FC00002318460837BD4680BD000080B485B063
:10290C0000AF78607B6893F83D30DBB2012B01D0CF
:10291C00012335E07B68022283F83D207B681B682D
:10292C00DA687B681B6842F00102DA607B681B681E
:10293C00164A934209D07B681B68B3F1804F04D0D0
:10294C007B681B68124A934211D17B681B689B6899
:10295C0003F00703FB60FB68062B10D07B681B6839
:10296C001A687B681B6842F001021A6007E07B68FA
:10297C001B681A687B681B6842F001021A6000230E
:10298C0018461437BD4680BC704700BF002C014070
:10299C000004004080B582B000AF78607B681B6893
:1029AC001B6903F00203022B22D17B681B68DB68D6
:1029BC0003F00203022B1BD17B681B686FF0020231
:1029CC001A617B6801221A777B681B689B6903F08C
:1029DC000303002B03D0786800F0B4F905E07868A5
:1029EC0000F0A7F9786800F0B6F97B6800221A7736
:1029FC007B681B681B6903F00403042B22D17B68E2
:102A0C001B68DB6803F00403042B1BD17B681B6879
:102A1C006FF004021A617B6802221A777B681B68CC
:102A2C009B6903F44073002B03D0786800F08AF99B
:102A3C0005E0786800F07DF9786800F08CF97B6827
:102A4C0000221A777B681B681B6903F00803082BAC
:102A5C0022D17B681B68DB6803F00803082B1BD1B1
:102A6C007B681B686FF008021A617B6804221A7776
:102A7C007B681B68DB6903F00303002B03D07868C9
:102A8C0000F060F905E0786800F053F9786800F020
:102A9C0062F97B6800221A777B681B681B6903F05C
:102AAC001003102B22D17B681B68DB6803F010032A
:102ABC00102B1BD17B681B686FF010021A617B68AE
:102ACC0008221A777B681B68DB6903F44073002BC0
:102ADC0003D0786800F036F905E0786800F029F941
:102AEC00786800F038F97B6800221A777B681B68DD
:102AFC001B6903F00103012B0ED17B681B68DB689B
:102B0C0003F00103012B07D17B681B686FF00102F6
:102B1C001A617868FEF75CFF7B681B681B6903F021
:102B2C008003802B0ED17B681B68DB6803F080036D
:102B3C00802B07D17B681B686FF080021A61786864
:102B4C0000F06BFA7B681B681B6903F04003402B99
:102B5C000ED17B681B68DB6803F04003402B07D168
:102B6C007B681B686FF040021A61786800F0FCF813
:102B7C007B681B681B6903F02003202B0ED17B683C
:102B8C001B68DB6803F02003202B07D17B681B68D4
:102B9C006FF020021A61786800F036FA00BF08372F
:102BAC00BD4680BD80B584B000AF7860396000232D
:102BBC00FB737B6893F83C30012B01D10223B4E00A
:102BCC007B68012283F83C207B68022283F83D203D
:102BDC007B681B689B68BB60BB6823F07703BB609A
:102BEC00BB6823F47F43BB607B681B68BA689A6040
:102BFC003B681B68B3F5005F3ED0B3F5005F00F295
:102C0C008780B3F5805F00F08680B3F5805F7FD856
:102C1C00702B1AD0702B7BD8602B50D0602B77D8B0
:102C2C00502B3CD0502B73D8402B58D0402B6FD806
:102C3C00302B64D0302B6BD8202B60D0202B67D856
:102C4C00002B5CD0102B5AD062E07B6818683B6874
:102C5C0099683B685A683B68DB6800F05EF97B68F2
:102C6C001B689B68BB60BB6843F07703BB607B68E9
:102C7C001B68BA689A604FE07B6818683B68996873
:102C8C003B685A683B68DB6800F047F97B681B6857
:102C9C009A687B681B6842F480429A603CE07B68CF
:102CAC0018683B6859683B68DB681A4600F0BEF848
:102CBC007B681B685021184600F015F92CE07B68E6
:102CCC0018683B6859683B68DB681A4600F0DCF80A
:102CDC007B681B686021184600F005F91CE07B68D6
:102CEC0018683B6859683B68DB681A4600F09EF828
:102CFC007B681B684021184600F0F5F80CE07B68F7
:102D0C001A683B681B681946104600F0ECF803E0A3
:102D1C000123FB7300E000BF7B68012283F83D2098
:102D2C007B68002283F83C20FB7B18461037BD469D
:102D3C0080BD80B483B000AF786000BF0C37BD4657
:102D4C0080BC704780B483B000AF786000BF0C3794
:102D5C00BD4680BC704780B483B000AF786000BFC4
:102D6C000C37BD4680BC704780B483B000AF786030
:102D7C0000BF0C37BD4680BC7047000080B485B0E6
:102D8C0000AF786039607B681B68FB607B68254A04
:102D9C00934207D07B68B3F1804F03D07B68224A03
:102DAC00934208D1FB6823F07003FB603B685B68BF
:102DBC00FA681343FB607B681A4A934207D07B681E
:102DCC00B3F1804F03D07B68174A934208D1FB685C
:102DDC0023F44073FB603B68DB68FA681343FB60C9
:102DEC00FB6823F080023B685B691343FB607B68E4
:102DFC00FA681A603B689A687B68DA623B681A6802
:102E0C007B689A627B68074A934203D13B681A69D4
:102E1C007B681A637B6801225A6100BF1437BD4678
:102E2C0080BC7047002C01400004004080B487B087
:102E3C0000AFF860B9607A60FB681B6A7B61FB6865
:102E4C001B6A23F00102FB681A62FB689B693B61F9
:102E5C003B6923F0F0033B617B681B013A69134328
:102E6C003B617B6923F00A037B617A69BB6813437E
:102E7C007B61FB683A699A61FB687A691A6200BFE8
:102E8C001C37BD4680BC704780B487B000AFF8607B
:102E9C00B9607A60FB681B6A7B61FB681B6A23F074
:102EAC001002FB681A62FB689B693B613B6923F467
:102EBC0070433B617B681B033A6913433B617B693D
:102ECC0023F0A0037B61BB681B017A6913437B6110
:102EDC00FB683A699A61FB687A691A6200BF1C3711
:102EEC00BD4680BC704780B485B000AF7860396057
:102EFC007B689B68FB60FB6823F07003FB603A689F
:102F0C00FB68134343F00703FB607B68FA689A6025
:102F1C0000BF1437BD4680BC704780B487B000AF8B
:102F2C00F860B9607A603B60FB689B687B617B6989
:102F3C0023F47F437B613B681A027B681A43BB68AE
:102F4C0013437A6913437B61FB687A699A6000BF0B
:102F5C001C37BD4680BC704780B485B000AF78602C
:102F6C0039607B6893F83C30012B01D1022341E09E
:102F7C007B68012283F83C207B68022283F83D2089
:102F8C007B681B685B68FB607B681B689B68BB602D
:102F9C00FB6823F07003FB603B681B68FA68134303
:102FAC00FB607B681B68FA685A607B681B68144A74
:102FBC00934209D07B681B68B3F1804F04D07B68C7
:102FCC001B68104A93420CD1BB6823F08003BB6092
:102FDC003B685B68BA681343BB607B681B68BA6864
:102FEC009A607B68012283F83D207B68002283F87D
:102FFC003C20002318461437BD4680BC704700BFE8
:10300C00002C01400004004080B483B000AF786015
:10301C0000BF0C37BD4680BC704780B483B000AF96
:10302C00786000BF0C37BD4680BC704770B5002679
:10303C000C4D0D4C641BA410A64209D100F022F8D3
:10304C0000260A4D0A4C641BA410A64205D170BD83
:10305C0055F8043B98470136EEE755F8043B984782
:10306C000136F2E7CC300008CC300008CC30000838
:10307C00D030000803460244934200D1704703F855
:10308C00011BF9E7F8B500BFF8BC08BC9E467047B9
:0C309C00F8B500BFF8BC08BC9E467047A9
:1030A80000000000000000000102030406070809F0
:1030B80002030405060708090A0B0C0D0E0F101071
:0430C8000102000001
:0430CC0031010008C6
:0430D0000D010008E6
:1030D40000010000000200000004000001000000E4
:1030E40001000000010000000100000001000000D8
:1030F40001000000010000000100000001000000C8
:10310400010000000100000001000000F4010000C3
:103114000500000003000000020000000024F40089
:08312400100000000100000092
:0400000508001A01D4
:00000001FF
